:060000000A128A11122809
:10000800FE00030EF0000408F1000A08F200831253
:1000180003137F08F3000A128A11122C0A128A119C
:10002800252C83120313BE01BF012630BC0000300B
:10003800BD000030F4000030F5000A128A11B82320
:100048000A128A118316031788018901CF30831693
:1000580003138500FF3086001B3087008801283095
:10006800831203139400803083160313940009301D
:10007800930070308312031390000C10831603133F
:100088000C148312031310100B178B170030A000E9
:100098000030A1004830B6003608A2000330B7008F
:1000A8003708A3004030B8003808A400A5010A1298
:1000B8008A1149230A128A110130F4000030F50030
:1000C8000A128A11B8230A128A118312031305121D
:1000D8008516071387162030B7002930B600B60BEF
:1000E8007328B70B73287828831203130512851217
:1000F8007D280030F4000030F5000A128A11B82378
:100108000A128A118312031305160030A00000306A
:10011800A1004830B6003608A2000230B700370800
:10012800A3000A128A11CC210A128A11831203131E
:100138002108BF01BF072008BE01BE070512003015
:100148003F02803003193E02031CAB28AC28C628A6
:100158000030A0000030A1004830B6003608A200E8
:100168000330B7003708A3004030B8003808A400AF
:10017800A5010A128A1149230A128A11831203134C
:100188008516C62800303F02803003193E02031846
:10019800CE28CF287D2885120030A0000030A1008D
:1001A8004830B6003608A200A3010A128A11CC21F1
:1001B8000A128A11831203132108BF01BF072008FE
:1001C800BE01BE073E08B700B6013608BE003708B4
:1001D800BF000130A0000030A1004830B60036084A
:1001E800A200A3010A128A11CC210A128A118312D1
:1001F80003133E082007BE003F0803183F0A2107E3
:10020800BF003F08B7003E08B60007300310B70C20
:10021800B60CFF3E031D0A293608A5003708A600BC
:100228000A128A11E1230A128A118312031325087C
:10023800B9002608BA002708BB003908A5003A0803
:10024800A6003B08A7003D08B201B2073C08B1016F
:10025800B1070A128A118C230A128A118312031316
:100268003108A8003208A9003308AA000A128A1126
:10027800DB220A128A11031C422943296F2983129F
:1002880003133C08063EB1003D080318013E003E3A
:10029800B2000A128A118C230A128A1183120313DC
:1002A8003108A5003208A6003308A7003908A800BD
:1002B8003A08A9003B08AA000A128A11DB220A128E
:1002C8008A11031C682969296F29831203130713EC
:1002D800871605127D28831203133908A5003A08EA
:1002E800A6003B08A7003D08B201B2073C08B101CF
:1002F800B1070A128A118C230A128A118312031376
:100308003108A8003208A9003308AA000A128A1185
:10031800DB220A128A110318922993299929831238
:1003280003130713871205127D28831203133C0851
:10033800063EB1003D080318013E003EB2000A1215
:100348008A118C230A128A11831203133108A5001B
:100358003208A6003308A7003908A8003A08A900FF
:100368003B08AA000A128A11DB220A128A11031812
:10037800BE29BF297D288312031307178712051684
:100388007D287D287D287D287D280A128A1112283B
:1003980009308316031393001114D2291118D52993
:1003A800D629D229D7298312031322080A128A11BF
:1003B800FC230A128A118312031323080A128A11D2
:1003C800FC230A128A11831603139114EB2991183E
:1003D800EE29EF29EB29F029831203132208F500EF
:1003E8007507F6007608A2002208013E0A128A1153
:1003F800FC230A128A11831203138C118316031328
:100408009115062A9119092A0A2A062A0C2A0C2A61
:10041800141C0F2A102A0C2A112A831203131308FA
:10042800F5007508A40083160313911211161C2AEF
:10043800111A1F2A202A1C2A831203138C118316CF
:1004480003139115272A91192A2A2B2A272A2D2A9C
:100458002D2A141C302A312A2D2A322A83120313FA
:100468001308F5007508A5008316031391161116D5
:100478003D2A111A402A412A3D2A831203138C115E
:10048800831603131115482A11194B2A4C2A482A96
:100498004D2A09309300831203132008243E840058
:1004A80083130008F500F6017508A0007608A1007E
:1004B8005D2A0800831203132308031D642A6C2A8B
:1004C800220821042004031D6A2A6B2A822A6C2A26
:1004D8000030A0000030A1000030A200DA2ADA2A99
:1004E800822A0130F4007408A30701300310A20C1B
:1004F800A10CA00CFF3E031D7A2A822AFE30220599
:10050800031D872A882A752AA02AA02A0130F40008
:100518007408A3070130A007003003180130A107B1
:10052800003003180130A20701300310A20CA10CFF
:10053800A00CFF3E031D992AFF302205031DA52AA2
:10054800A62A8A2AB32AB32A0130A302013003104B
:10055800A00DA10DA20DFF3E031DAB2AB32AA11FBA
:10056800B62AB72AA82A2318BA2ABB2AC12AFF30D2
:10057800A0057F30A105FF30A2050310A30C2308B6
:10058800F400F501F60110300310F40DF50DF60D29
:10059800FF3E031DC82A7408A0047508A104760844
:1005A800A2042408031DD92ADA2AA21708008312F4
:1005B8000313A71FE02AE12A072B0030AB00003005
:1005C800AC008030AD002509AE002609AF00270930
:1005D800B000AE0A0319AF0A0319B00A2E08AB0718
:1005E8002F0803182F0FF92AFA2AAC073008031826
:1005F800300FFF2A002BAD072B08A5002C08A600FA
:100608002D08A700072BAA1F0A2B0B2B312B003014
:10061800AB000030AC008030AD002809AE002909DD
:10062800AF002A09B000AE0A0319AF0A0319B00ACD
:100638002E08AB072F0803182F0F232B242BAC07EA
:1006480030080318300F292B2A2BAD072B08A800D8
:100658002C08A9002D08AA00312B8030A70680306D
:10066800AA062A082702031D3F2B29082602031D74
:100678003F2B280825020318422B432B452B031038
:10068800482B0314482B482B080083160313111416
:100698004D2B1118502B512B4D2B522B831203131A
:1006A80022080A128A11FC230A128A1183120313E0
:1006B80023080A128A11FC230A128A1183120313CF
:1006C80024080A128A11FC230A128A1101308312A3
:1006D800031320062104031D722B732B7A2B250884
:1006E8000A128A11FC230A128A117A2B8312031325
:1006F8008C11831603131115812B1119842B852B4B
:10070800812B862B0830F500F50B882B8B2B0800E6
:10071800F70183120313B21F922B932B9C2BB10961
:10072800B209B10A0319B20AF7010314F70D9C2B99
:100738003108A0003208A100A2018E30B4003408AC
:10074800A3007708B5003508A4000A128A115E22B2
:100758000A128A11831203132008B1002108B2007B
:100768002208B300B72B0800CD2B60308316031383
:100778008F00E02B831603138F01E02B4030831684
:1007880003138F00E02B3030831603138F00E02B08
:10079800E02B7508003A0319D22BE02B7408003AB5
:1007A8000319B92B013A0319BE2B033A0319C22BBB
:1007B800013A0319C72BE02B0800831203132508FD
:1007C800A0002608A100A2018E30F7007708A30038
:1007D800A4010A128A115E220A128A1183120313D3
:1007E8002008A5002108A6002208A700FB2B080066
:1007F800F400831203138C1174089300032C8316DE
:1008080003131418082C092C032C0B2C0B2C831203
:100818008C1D0F2C102C0B2C112C08000C1C152CCB
:10082800162C1A2CF801F9010C101A2C7308FF0069
:1008380072088A0071088400700E8300FE0E7E0E16
:0E0848000900F801F90183010A128A1115282E
:02400E00C4E00C
:00000001FF
